:100000000C9462000C9411040C94EA030C948A0082
:100010000C948A000C948A000C948A000C948A0038
:100020000C948A000C948A000C948A000C948A0028
:100030000C948A000C948A000C948A000C948A0018
:100040000C94A0030C948A000C945E040C94380465
:100050000C948A000C948A000C948A000C948A00F8
:100060000C948A000C948A000000000023002600F3
:10007000290000000000240027002A0000000000E2
:10008000250028002B0004040404040404040202D4
:100090000202020203030303030301020408102007
:1000A0004080010204081020010204081020000012
:1000B0000008000201000003040700000000000027
:1000C0000000900411241FBECFEFD8E0DEBFCDBFEB
:1000D00011E0A0E0B1E0EEE2F8E102C005900D927F
:1000E000AC37B107D9F722E0ACE7B1E001C01D920F
:1000F000AF37B207E1F710E0C2E6D0E004C02197C5
:10010000FE010E94CC09C136D107C9F70E94D10572
:100110000C94150C0C940000833081F028F481308D
:1001200099F08230A9F008958730A9F08830C9F09D
:100130008430B1F4809180008F7D03C08091800075
:100140008F7780938000089584B58F7784BD08955C
:1001500084B58F7DFBCF8091B0008F778093B00006
:1001600008958091B0008F7DF9CF1F93CF93DF93D7
:10017000282F30E0F901E255FF4F8491F901E6564E
:10018000FF4FD491F901EA57FF4FC491CC23A9F056
:10019000162F81110E948C00EC2FF0E0EE0FFF1F54
:1001A000E458FF4FA591B4918FB7F894EC911111D9
:1001B00008C0D095DE23DC938FBFDF91CF911F91D4
:1001C0000895DE2BF8CFCF93DF93CBE2D2E060E04F
:1001D00089810E94B50060E08A81DF91CF910C9403
:1001E000B500CF93DF9390E0FC01E656FF4F2491DA
:1001F0008A579F4FFC0184918823D1F090E0880FAB
:10020000991FFC01EE58FF4FA591B491FC01E458F1
:10021000FF4FC591D491623071F49FB7F8943C912F
:10022000822F809583238C93E8812E2B28839FBF78
:10023000DF91CF9108958FB7F894EC912E2B2C93EA
:100240008FBFF6CF0895AF92BF92CF92DF92EF9219
:10025000FF920F931F93CF93DF936C017B018B0170
:10026000040F151FEB015E01AE18BF08C017D107C0
:1002700059F06991D601ED91FC910190F081E02D4A
:10028000C6010995892B79F7C501DF91CF911F919F
:100290000F91FF90EF90DF90CF90BF90AF900895B7
:1002A000FC01538D448D252F30E0842F90E0821B7C
:1002B000930B541710F0CF96089501970895FC0101
:1002C000918D828D981761F0A28DAE0FBF2FB11D59
:1002D0005D968C91928D9F5F9F73928F90E00895B1
:1002E0008FEF9FEF0895FC01918D828D981731F06B
:1002F000828DE80FF11D858D90E008958FEF9FEFBF
:100300000895FC01918D228D892F90E0805C9F4F94
:10031000821B91098F739927089581E891E00E94CB
:10032000810121E0892B09F420E0822F089580E0EB
:1003300090E0892B29F00E948D0181110C9400001E
:100340000895FC01A48DA80FB92FB11DA35ABF4F6A
:100350002C91848D90E001968F739927848FA689C4
:10036000B7892C93A089B1898C91837080648C9318
:10037000938D848D981306C00288F389E02D8081C7
:100380008F7D80830895EF92FF920F931F93CF93F9
:10039000DF93EC0181E0888F9B8D8C8D98131AC0C0
:1003A000E889F989808185FF15C09FB7F894EE89A7
:1003B000FF896083E889F989808183708064808304
:1003C0009FBF81E090E0DF91CF911F910F91FF904F
:1003D000EF900895F62E0B8D10E00F5F1F4F0F73F7
:1003E0001127E02E8C8D8E110CC00FB607FCFACFB2
:1003F000E889F989808185FFF5CFCE010E94A101AE
:10040000F1CFEB8DEC0FFD2FF11DE35AFF4FF08282
:100410009FB7F8940B8FEA89FB8980818062CFCFE8
:10042000CF93DF93EC01888D8823B9F0AA89BB892B
:10043000E889F9898C9185FD03C0808186FD0DC016
:100440000FB607FCF7CF8C9185FFF2CF808185FF37
:10045000EDCFCE010E94A101E9CFDF91CF910895A8
:10046000CF93DF932091790230E0F901E255FF4FFD
:100470008491F901E656FF4FD491F901EA57FF4FF5
:10048000C491CC2321F181110E948C00EC2FF0E06B
:10049000EE0FFF1FE859FF4FA591B491EC91ED23AA
:1004A000B1F080917B0290917C02A0917D02B0918D
:1004B0007E020197A109B10980937B0290937C028F
:1004C000A0937D02B0937E02DF91CF910895809139
:1004D0007B0290917C02A0917D02B0917E020196F8
:1004E000A11DB11DE9CFFC0101900020E9F7319772
:1004F000AF01481B590BBC0181E891E00C9423012A
:100500008F929F92AF92BF920F931F93CF93DF93DF
:10051000CDB7DEB7A1970FB6F894DEBF0FBECDBF43
:1005200019A2423008F44AE08E010F5D1F4F842E5D
:10053000912CB12CA12CA50194010E94AA09E62FAF
:10054000B901CA01EA30F4F4E05DD801EE938D01FF
:10055000232B242B252B79F790E080E0109719F0BE
:10056000CD010E947302A1960FB6F894DEBF0FBEB4
:10057000CDBFDF91CF911F910F91BF90AF909F9012
:100580008F900895E95CE1CF4F925F926F927F92D6
:100590008F929F92AF92BF92CF92DF92EF92FF9293
:1005A0000F931F93CF936B017C01742EAC019B01C1
:1005B0000E94100C882399F086E191E0CF911F9161
:1005C0000F91FF90EF90DF90CF90BF90AF909F90F2
:1005D0008F907F906F905F904F900C9473024601C4
:1005E0005701E894B7F82FEF3FEF4FE75FE7C501FA
:1005F000B4010E94100C81110DC02FEF3FEF4FE7A7
:100600005FE7C501B4010E943F0A18161CF48AE195
:1006100091E0D4CF2FEF3FEF4FE75FE4C701B60182
:100620000E949E0B18161CF48EE191E0C7CF2FEFAD
:100630003FEF4FE75FECC701B6010E943F0A87FD1D
:10064000F3CF20E030E0A901C701B6010E943F0AC4
:1006500010E000E087FF0AC06DE281E891E00E94AF
:10066000C3018C01F7FAF094F7F8F094C0E060E071
:1006700070E080E09FE37C1641F020E030E040E253
:1006800051E40E94440ACF5FF6CFA70196010E9471
:10069000D3092B013C010E94BD0A4B015C014AE0D9
:1006A0000E9480027C01E00EF11ECC23C1F1C50145
:1006B000B4010E94EC0A9B01AC01C301B2010E948B
:1006C000D2094B015C016EE281E891E00E94C30116
:1006D000E80EF91EC15018F120E030E040E251E48C
:1006E000C501B4010E94A30B2B013C010E94BD0A6D
:1006F0004B01B12CA12C4AE0C501B4010E9480023B
:10070000E80EF91EC501B4010E94EC0A9B01AC0180
:10071000C301B2010E94D2094B015C01DBCFC701CA
:10072000CF911F910F91FF90EF90DF90CF90BF90EE
:10073000AF909F908F907F906F905F904F900895B3
:100740001F920F920FB60F9211242F933F938F9306
:100750009F93AF93BF9380911E0290911F02A0912F
:100760002002B09121023091800123E0230F2D3728
:1007700058F50196A11DB11D2093800180931E02A2
:1007800090931F02A0932002B093210280917C01DC
:1007900090917D01A0917E01B0917F010196A11DF4
:1007A000B11D80937C0190937D01A0937E01B09355
:1007B0007F01BF91AF919F918F913F912F910F90AA
:1007C0000FBE0F901F90189526E8230F0296A11DCB
:1007D000B11DD2CF1F920F920FB60F9211242F93FB
:1007E0003F934F935F936F937F938F939F93AF93B9
:1007F000BF93EF93FF93E0910201F09103010995FC
:10080000FF91EF91BF91AF919F918F917F916F91E8
:100810005F914F913F912F910F900FBE0F901F90BE
:1008200018951F920F920FB60F9211242F933F939A
:100830004F935F936F937F938F939F93AF93BF93E8
:10084000EF93FF93E0910001F09101010995FF9171
:10085000EF91BF91AF919F918F917F916F915F9138
:100860004F913F912F910F900FBE0F901F901895B1
:100870001F920F920FB60F9211242F933F934F9315
:100880005F936F937F938F939F93AF93BF93EF93F8
:10089000FF9381E891E00E94A101FF91EF91BF9148
:1008A000AF919F918F917F916F915F914F913F9108
:1008B0002F910F900FBE0F901F9018951F920F92BF
:1008C0000FB60F9211242F938F939F93EF93FF9363
:1008D000E0919101F09192018081E0919701F09176
:1008E000980182FD1BC0908180919A018F5F8F7368
:1008F00020919B01821741F0E0919A01F0E0EF57BF
:10090000FE4F958F80939A01FF91EF919F918F9168
:100910002F910F900FBE0F901F9018958081F4CFEC
:10092000CF93109284011092830188EE93E0A0E0AF
:10093000B0E08093850190938601A0938701B093E6
:10094000880188E091E0909382018093810185EC99
:1009500090E090938E0180938D0184EC90E09093D1
:10096000900180938F0180EC90E0909392018093AE
:10097000910181EC90E0909394018093930182EC3B
:1009800090E0909396018093950186EC90E090938F
:1009900098018093970110929A0110929B011092F6
:1009A0009C0110929D0182E08093780284E0809304
:1009B0007902C1E0C0937A0210927B0210927C020D
:1009C00010927D0210927E0262E082E00E94F100AD
:1009D00062E0809179020E94F1008BE080932B020B
:1009E00088E080932C0289E080932D028AEB9AEDB7
:1009F000AAE0BDE380932E0290932F02A0933002D1
:100A0000B09331028AEE91E09093330280933202E8
:100A1000C093340288E792E090935202809351028F
:100A200080E090E0AAEFB3E48093570290935802DD
:100A3000A0935902B0935A0280E090E0A2E0B3E4A0
:100A400080935B0290935C02A0935D02B0935E0280
:100A500080E090E0A8E4B2E480935F0290936002AB
:100A6000A0936102B093620210926302109264023A
:100A7000109265021092660280E090E0AFE7B3E466
:100A80008093670290936802A0936902B0936A0210
:100A900010926B0210926C0210926D0210926E0214
:100AA00010926F02109270021092710210927202F4
:100AB00010927302109274021092750210927602D4
:100AC00061E08BE00E94F10061E080912C020E94C5
:100AD000F10061E080912D020E94F10081E090E040
:100AE0009093560280935502E0915102F091520288
:100AF00083819481A581B6812281222339F0B0952A
:100B0000A095909581959F4FAF4FBF4F809349021D
:100B100090934A02A0934B02B0934C022FB7F894E3
:100B200080911E0290911F02A0912002B09121029B
:100B30002FBF80934D0290934E02A0934F02B0932B
:100B4000500282E390E0A0E0B0E080932202909314
:100B50002302A0932402B093250281E08093260211
:100B60008FB7F89440911E0250911F0260912002AD
:100B7000709121028FBF8091220290912302A09157
:100B80002402B0912502840F951FA61FB71F8093E2
:100B9000270290932802A0932902B0932A02CF91B2
:100BA0000895CF93DF93CDB7DEB761970FB6F89472
:100BB000DEBF0FBECDBF789484B5826084BD84B59E
:100BC000816084BD85B5826085BD85B5816085BD48
:100BD00080916E00816080936E0010928100809100
:100BE0008100826080938100809181008160809388
:100BF0008100809180008160809380008091B100AD
:100C000084608093B1008091B00081608093B000D7
:100C100080917A00846080937A0080917A0082606B
:100C200080937A0080917A00816080937A0080912D
:100C30007A00806880937A001092C100E09191015F
:100C4000F091920182E08083E0918D01F0918E011C
:100C50001082E0918F01F09190018FEC80831092CF
:100C60009901E0919501F091960186E08083E091F1
:100C70009301F0919401808180618083E0919301E0
:100C8000F0919401808188608083E0919301F091DC
:100C90009401808180688083E0919301F0919401B8
:100CA00080818F7D808382E291E00E94730288E2DE
:100CB00091E00E94730280E392E09093010180939F
:100CC000000180916900836080936900E89A8091B7
:100CD000510290915202892B11F181E090E09093A2
:100CE00056028093550280E090E0A0E0BFE380933D
:100CF000730290937402A0937502B09376021092DF
:100D00006B0210926C0210926D0210926E021092A1
:100D10006F021092700210927102109272028FB7DD
:100D2000F89440911E0250911F0260912002709130
:100D300021028FBF8091270290912802A091290261
:100D4000B0912A02481759076A077B0708F4D3C2F3
:100D5000209126022223A1F04091220250912302E9
:100D60006091240270912502840F951FA61FB71F62
:100D70008093270290932802A0932902B0932A021D
:100D80008091550290915602019709F0C5C1E091FA
:100D90005102F0915202C380D480E580F6808281B6
:100DA000882341F0F094E094D094C094C11CD11CED
:100DB000E11CF11C8FB7F89440901E0250901F0266
:100DC00060902002709021028FBF6091320270917A
:100DD000330290E080E00E94EC0A4B015C018091BC
:100DE000490290914A02A0914B02B0914C02A70196
:100DF0009601281B390B4A0B5B0BCA01B9010E94F3
:100E0000EE0A69837A838B839C8380914D02909153
:100E10004E02A0914F02B0915002A3019201281BF3
:100E2000390B4A0B5B0BCA01B9010E94EC0A9B010A
:100E3000AC0169817A818B819C810E94440A20E007
:100E400030E64AE657E40E94A30BA50194010E94F4
:100E5000440AC0924902D0924A02E0924B02F092B8
:100E60004C0240924D0250924E0260924F0270929C
:100E7000500260934502709346028093470290931C
:100E800048029B01AC010E94D3092BED3FE049E4ED
:100E900050E40E94A30B20E030E040E752E40E94BF
:100EA000440A6093390270933A0280933B02909314
:100EB0003C0240902E0250902F02609030027090C1
:100EC0003102A30192010E94A30B6B017C01C0922D
:100ED0003502D0923602E0923702F0923802409109
:100EE0005102509152025F834E83FA0183819481B3
:100EF000A581B6812281222339F0B095A0959095E5
:100F000081959F4FAF4FBF4FBC01CD01660F771F3B
:100F1000881F991F0E94EE0A2BED3FE049E450E440
:100F20000E94A30BA30192010E94A30BA5019401AF
:100F30000E94440A60933D0270933E0280933F02F8
:100F400090934002209157023091580240915902EB
:100F500050915A02288739874A875B8780915B02C4
:100F600090915C02A0915D02B0915E028C879D879A
:100F7000AE87BF8740905F02509060026090610230
:100F8000709062023090630220906402909165023A
:100F90009983A0916602AD83B0916702B88BE0910E
:100FA0006802E98B1091690200916A02A70196011B
:100FB0006091730270917402809175029091760233
:100FC0000E94D2094B015C0120916B0230916C02AE
:100FD00040916D0250916E020E94D3096B017C0119
:100FE0009B01AC0168897989812F902F0E943F0A6B
:100FF00087FDA7C09601A701632D722D89819D8170
:101000000E949E0B18160CF4A1C0C601D701809354
:101010006B0290936C02A0936D02B0936E022091CC
:101020006F02309170024091710250917202C501BD
:10103000B4010E94D209A30192010E94A30B2B01CB
:101040003C01A5019401688579858A859B850E946C
:10105000A30B4B015C019601A7016C857D858E85F4
:101060009F850E94A30B9B01AC01C501B4010E94A6
:10107000D3099B01AC01C301B2010E94D3096B01EA
:101080007C019B01AC0168897989812F902F0E9496
:101090003F0A87FD0FC09601A701632D722D89813C
:1010A0009D810E949E0B18160CF455C0C88AD98ADF
:1010B0001E2D0F2D68897989812F902F0E94B60AE5
:1010C0007A8369832E813F81232B09F049C01092D6
:1010D00056021092550289819A818130AFEF9A07AA
:1010E0000CF445C08F3F910511F00CF05BC097FFE9
:1010F00043C0F0913402FD836F2F80912C020E9437
:10110000B50061E02D81622780912D020E94B5001B
:101110006981619560937702B0917702BD830B2F4F
:1011200010E0E0912B02E98361E08E2F0E94F10034
:101130000115110509F040C060E089810E94B500E9
:101140006AC0C888D988E12EF02E5FCFC32CD22C7C
:10115000E980FD805ACF388A298A19810D81AACF6A
:1011600041E050E05093560240935502B4CFE1E085
:10117000FFEFFA83E983BDCF49815A81452BB9F04E
:10118000909134029D8361E0692780912C020E9436
:10119000B5006D8180912D020E94B500A981A093B8
:1011A0007702BACF8FEF90E09A838983E9CF0E94CC
:1011B000E30010927702B0CF0F3F110511F461E008
:1011C000BCCF2981E22FF0E0E255FF4FE491E330FC
:1011D00009F4A4C048F4E130C9F0E23009F498C041
:1011E0000038110564F7A8CFE73009F4A1C0E83052
:1011F00009F4A7C0E430A1F7809180008062809359
:10120000800010938B0000938A0005C084B580682D
:1012100084BD3D8137BDC0903502D0903602E0904C
:101220003702F09038028BE291E00E94730242E0B4
:1012300060E070E080E09FE30E94C40285E391E0FB
:101240000E94730287E391E00E94730242E0C701AB
:10125000B6010E94C40288E291E00E94730281E418
:1012600091E00E9473026091390270913A0280917C
:101270003B0290913C0242E00E94C40285E491E06E
:101280000E9473026091350270913602809137029C
:101290009091380242E00E94C40282E591E00E94EF
:1012A000730260913D0270913E0280913F029091E5
:1012B000400242E00E94C4028DE591E00E94730268
:1012C00060914102709142028091430290914402E8
:1012D00042E00E94C4028AE691E00E94730260919B
:1012E000770270E090E080E04AE00E94800288E2AD
:1012F00091E00E947302A0E0B0E0AB2B09F40FCDA7
:101300000E948D01882309F40ACD0E94000007CDB8
:1013100084B5806284BD4D8148BD7DCF80918000C1
:10132000806880938000109389000093880073CFB9
:101330008091B00080688093B0005D815093B300CD
:101340006ACF8091B00080628093B0008D818093DD
:10135000B40061CFA1E21A2EAA1BBB1BFD010DC078
:10136000AA1FBB1FEE1FFF1FA217B307E407F50755
:1013700020F0A21BB30BE40BF50B661F771F881F31
:10138000991F1A9469F760957095809590959B01C7
:10139000AC01BD01CF010895EE0FFF1F0590F49140
:1013A000E02D09945058BB27AA270E94EA090C9403
:1013B000640B0E94560B38F00E945D0B20F039F44C
:1013C0009F3F19F426F40C94530B0EF4E095E7FBC1
:1013D0000C944D0BE92F0E94750B58F3BA17620756
:1013E00073078407950720F079F4A6F50C94970B02
:1013F0000EF4E0950B2EBA2FA02D0B01B901900130
:101400000C01CA01A0011124FF27591B99F0593F73
:1014100050F4503E68F11A16F040A22F232F342FBB
:101420004427585FF3CF469537952795A795F04009
:101430005395C9F77EF41F16BA0B620B730B840B1E
:10144000BAF09150A1F0FF0FBB1F661F771F881FD6
:10145000C2F70EC0BA0F621F731F841F48F487952E
:1014600077956795B795F7959E3F08F0B0CF939520
:10147000880F08F09927EE0F9795879508950E9499
:10148000290B08F481E008950E94580A0C94640B1B
:101490000E945D0B58F00E94560B40F029F45F3F0C
:1014A00029F00C944D0B51110C94980B0C94530B88
:1014B0000E94750B68F39923B1F3552391F3951BA3
:1014C000550BBB27AA2762177307840738F09F5F65
:1014D0005F4F220F331F441FAA1FA9F335D00E2ED2
:1014E0003AF0E0E832D091505040E695001CCAF73F
:1014F0002BD0FE2F29D0660F771F881FBB1F261702
:1015000037074807AB07B0E809F0BB0B802DBF01D8
:10151000FF2793585F4F3AF09E3F510578F00C94A7
:101520004D0B0C94980B5F3FE4F3983ED4F38695F3
:1015300077956795B795F7959F5FC9F7880F911DC8
:101540009695879597F90895E1E0660F771F881FB4
:10155000BB1F621773078407BA0720F0621B730B67
:10156000840BBA0BEE1F88F7E09508950E94BD0A20
:101570006894B1110C94980B08950E947D0B88F02B
:101580009F5798F0B92F9927B751B0F0E1F0660F47
:10159000771F881F991F1AF0BA95C9F714C0B13088
:1015A00091F00E94970BB1E008950C94970B672F70
:1015B000782F8827B85F39F0B93FCCF386957795B7
:1015C0006795B395D9F73EF49095809570956195A0
:1015D0007F4F8F4F9F4F0895E89409C097FB3EF4CB
:1015E00090958095709561957F4F8F4F9F4F992370
:1015F000A9F0F92F96E9BB279395F69587957795EE
:101600006795B795F111F8CFFAF4BB0F11F460FFAD
:101610001BC06F5F7F4F8F4F9F4F16C0882311F005
:1016200096E911C0772321F09EE8872F762F05C019
:10163000662371F096E8862F70E060E02AF09A95B4
:10164000660F771F881FDAF7880F9695879597F9A9
:101650000895990F0008550FAA0BE0E8FEEF161643
:101660001706E807F907C0F012161306E407F50796
:1016700098F0621B730B840B950B39F40A2661F00A
:10168000232B242B252B21F408950A2609F4A140AD
:10169000A6958FEF811D811D089597F99F6780E8BA
:1016A00070E060E008959FEF80EC089500240A94B4
:1016B0001616170618060906089500240A9412162D
:1016C0001306140605060895092E0394000C11F460
:1016D000882352F0BB0F40F4BF2B11F460FF04C00D
:1016E0006F5F7F4F8F4F9F4F089557FD9058440F66
:1016F000551F59F05F3F71F04795880F97FB991F71
:1017000061F09F3F79F0879508951216130614062D
:10171000551FF2CF4695F1DF08C0161617061806BA
:10172000991FF1CF86957105610508940895E89495
:10173000BB2766277727CB0197F908950E94290BCD
:1017400008F48FEF08950E94B60B0C94640B0E946E
:10175000560B38F00E945D0B20F0952311F00C948D
:101760004D0B0C94530B11240C94980B0E94750B89
:1017700070F3959FC1F3950F50E0551F629FF001E4
:10178000729FBB27F00DB11D639FAA27F00DB11DFD
:10179000AA1F649F6627B00DA11D661F829F222786
:1017A000B00DA11D621F739FB00DA11D621F839F0D
:1017B000A00D611D221F749F3327A00D611D231FE3
:1017C000849F600D211D822F762F6A2F11249F5731
:1017D00050409AF0F1F088234AF0EE0FFF1FBB1F34
:1017E000661F771F881F91505040A9F79E3F5105F3
:1017F00080F00C944D0B0C94980B5F3FE4F3983EF3
:10180000D4F3869577956795B795F795E7959F5F9C
:10181000C1F7FE2B880F911D9695879597F908952E
:0E1820000E94290B880B990B0895F894FFCFB6
:10182E002201220100000000C30123015001100219
:10183E0081015F0173016E616E00696E66006F76E5
:10184E0066005374617274000D0A00536574706FF4
:10185E00696E743A002C0076656C6F636974793A20
:10186E0000773A2000207261642F73207C20763A34
:10187E002000206D2F73207C20733A2000206D20D5
:10188E007C20616E67656C3A20002072616469612C
:0C189E006E73207C2070776D3A200000F3
:00000001FF
